:030000000202F603
:0C02F600787FE4F6D8FD75812702033DF7
:1005AC0012061B12005D1206821206917E067F65F2
:1005BC007B047A00E4FDFC1200037E067F437B1E65
:1005CC007A007D017C001200037E047F7B7B027A23
:1005DC00007D037C0012000312068E1204CC80FBFB
:10061B007524A2752540E4F523AF231205EC0523C1
:10062B00E523C3940340F2438E048525D7E524F5D7
:07063B00D6438E1043AF040B
:010642002295
:03068E00D2AF22C6
:030063000203FF96
:1003FF00C0E0C0F0C0D075D000C000C004C005C0C0
:01040F0007E5
:10041000E4FFEF75F007A42408F8E6FC08E64C605A
:1004200047EF75F007A4240AF8E6FC08E64C7029AB
:10043000EF75F007A4240EF87601EF75F007A424F9
:100440000CF8E6FC08E6FD4C601EEF75F007A424EE
:100450000AF8A60408A605800FEF75F007A4240A81
:0C046000F808E616187001160FBF03A67E
:0F046C00D007D005D004D000D0D0D0F0D0E032EF
:1004CC00E4F523E52375F007A4240EF8E6D3940095
:1004DC004032E52375F007A42408F8E6FE08E6AAE6
:1004EC0006F9120222E52375F007A4240EF816E58E
:1004FC002375F007A4240CF8E6FE08E64E7005AF51
:10050C00231205EC0523E523C3940340B602068AA7
:040003008E238F2495
:10000700E4FFEF75F007A42408F8E6F58308E64552
:10001700836009EFC3940350030F80E6EF75F00781
:10002700A42408F8A62308A624EF75F007A4240A39
:10003700F8A60408A605EF75F007A4240CF8A60295
:0D00470008A603EF75F007A4240EF8E4F6F8
:010054002289
:1005EC00EF75F007A42408F8E4F608F6EF75F007A9
:1005FC00A4240AF8E4F608F6EF75F007A4240CF826
:0F060C00E4F608F6EF75F007A4240EF8E4F622E2
:04068A00438701227F
:06005D00D2B4E4F52722F5
:1006650020B4140526E526D39402400775260275A5
:0C067500270122E4F52722E4F526F527F2
:010681002256
:10006600000002440258012C02580064038400C8B0
:1000760004B0015E038400AA04B000C805DC00AA2F
:100086000640010405DC0104049C00B40546015E3B
:1000960000000168025800FA02580064038400AAAE
:1000A60004B00168038400AA04B000B405DC00AA09
:1000B6000640010405DC010404B000AA053200C8AC
:1000C6000000009605DC00F00532006404B0015E15
:1000D60004B0010E0532005005DC00AA07D000B4BA
:1000E60007D000AF070800AA064000AA05DC00B446
:1000F600053200AA064000B405DC00B404B000AA2C
:100106000384015E03E8015E03E800FA044C006420
:1001160004B000B405DC015E04B000B4053C00AADE
:1001260005DC00B4064000AA068600AA070800BE41
:10013600053C00960384009602EE00C80258012C86
:1001460002580064038400C804B0015E038400AA58
:1001560004B000C805DC00AA0640010405DC010461
:10016600049C00B40546015E00000168025800FACE
:1001760002580064038400AA04B00168038400AA3C
:1001860004B000B405DC00AA0640010405DC010445
:1001960004B000AA053200C80000009605DC010480
:1001A6000532005A04B0015E04B001040532005A5B
:1001B60005DC00AA07D0015E070800AA064000AACF
:1001C60005DC00B4053200AA064000AA05DC00B42E
:1001D60004B000AA0384015E03E8015E03E801049B
:1001E600044C005A04B000AA05DC015404B000B463
:1001F600053200AA04B000AA046000B4053200AAC1
:0802060004B0015E000000FAE3
:07005500021E0000011D0066
:010691002246
:10047B00E51F451E704275F002E51DA42468F58248
:10048B00E5F03400F583E493F51E740193F51F75C5
:10049B00F002E51DA42466F582E5F03400F583E453
:1004AB0093FE740193FF120382051D051DE51DC309
:1004BB0094D4400CE4F51D22E51F151F7002151E88
:0104CB00220E
:100382008E238F24AB07AA06E4F9F8FF7E1B7DB704
:10039200FC120568C3E49FFFE49EFEC3E49FEE6483
:1003A20080F8748098500674FFF523F524438E80FC
:1003B200E4F5895389FBAE23AF24AB07AA06F9F80B
:1003C200FF7E1B7DB7FC120568EFF404F58AAE23AD
:1003D200AF24AB07AA06E4F9F8FF7E1B7DB7FC1237
:1003E2000568C3E49FFFE49EFE74019DFDE49CFC4E
:0D03F200780812020E8F8C758F01D28C22BC
:08068200E4F521F520F5222228
:10064300E527B401140521E521C3132520F520E591
:100653002175F003842522F5227B007A007920029C
:02066300051C74
:10051C00C2B37896D8FE7896D8FE7D03E77808D2D9
:10052C00B30033401600C2B3B8010809E77809DDFF
:10053C00268026000000000000801CB8010D09E791
:10054C007809DD0EC2B3000000800E000000000030
:0C055C000000C2B3000000D8C6D2B322D9
:100302000205ACE493A3F8E493A34003F68001F260
:1003120008DFF48029E493A3F85407240CC8C333FC
:10032200C4540F4420C8834004F456800146F6DFCB
:10033200E4800B0102040810204080900055E47E06
:10034200019360BCA3FF543F30E509541FFEE493C0
:10035200A360010ECF54C025E060A840B8E493A387
:10036200FAE493A3F8E493A3C8C582C8CAC583CAB2
:10037200F0A3C8C582C8CAC583CADFE9DEE780BE6A
:01005C0000A3
:10056800C2D5E830E70FB2D5E4C39BFBE49AFAE4BE
:1005780099F9E498F8EC30E717B2D512059E120203
:1005880064E4C39BFBE49AFAE499F9E498F88003DD
:1005980012026430D50DE4C39FFFE49EFEE49DFD86
:0405A800E49CFC22B1
:10020E00E86010ECA2E713FCED13FDEE13FEEF1306
:04021E00FFD8F022F3
:060222008A838982E47367
:1002280075F008758200EF2FFFEE33FECD33CDCC8D
:1002380033CCC58233C5829BED9AEC99E582984010
:100248000CF582EE9BFEED9AFDEC99FC0FD5F0D6ED
:10025800E4CEFBE4CDFAE4CCF9A88222B800C1B917
:100268000059BA002DEC8BF084CFCECDFCE5F0CB55
:10027800F97818EF2FFFEE33FEED33FDEC33FCEB8E
:1002880033FB10D703994004EB99FB0FD8E5E4F949
:10029800FA227818EF2FFFEE33FEED33FDEC33FC36
:1002A800C933C910D7059BE99A4007EC9BFCE99A2A
:1002B800F90FD8E0E4C9FAE4CCFB2275F010EF2F6F
:1002C800FFEE33FEED33FDCC33CCC833C810D7076F
:1002D8009BEC9AE899400AED9BFDEC9AFCE899F8AA
:0E02E8000FD5F0DAE4CDFBE4CCFAE4C8F9223D
:00000001FF
